{
  "_format": "hh-sol-artifact-1",
  "contractName": "Multicall3",
  "sourceName": "contracts/Multicall.sol",
  "abi": [
    {
      "inputs": [
        {
          "components": [
            {
              "internalType": "address",
              "name": "target",
              "type": "address"
            },
            {
              "internalType": "bytes",
              "name": "callData",
              "type": "bytes"
            }
          ],
          "internalType": "struct Multicall3.Call[]",
          "name": "calls",
          "type": "tuple[]"
        }
      ],
      "name": "aggregate",
      "outputs": [
        {
          "internalType": "uint256",
          "name": "blockNumber",
          "type": "uint256"
        },
        {
          "internalType": "bytes[]",
          "name": "returnData",
          "type": "bytes[]"
        }
      ],
      "stateMutability": "payable",
      "type": "function"
    },
    {
      "inputs": [
        {
          "components": [
            {
              "internalType": "address",
              "name": "target",
              "type": "address"
            },
            {
              "internalType": "bool",
              "name": "allowFailure",
              "type": "bool"
            },
            {
              "internalType": "bytes",
              "name": "callData",
              "type": "bytes"
            }
          ],
          "internalType": "struct Multicall3.Call3[]",
          "name": "calls",
          "type": "tuple[]"
        }
      ],
      "name": "aggregate3",
      "outputs": [
        {
          "components": [
            {
              "internalType": "bool",
              "name": "success",
              "type": "bool"
            },
            {
              "internalType": "bytes",
              "name": "returnData",
              "type": "bytes"
            }
          ],
          "internalType": "struct Multicall3.Result[]",
          "name": "returnData",
          "type": "tuple[]"
        }
      ],
      "stateMutability": "payable",
      "type": "function"
    },
    {
      "inputs": [
        {
          "components": [
            {
              "internalType": "address",
              "name": "target",
              "type": "address"
            },
            {
              "internalType": "bool",
              "name": "allowFailure",
              "type": "bool"
            },
            {
              "internalType": "uint256",
              "name": "value",
              "type": "uint256"
            },
            {
              "internalType": "bytes",
              "name": "callData",
              "type": "bytes"
            }
          ],
          "internalType": "struct Multicall3.Call3Value[]",
          "name": "calls",
          "type": "tuple[]"
        }
      ],
      "name": "aggregate3Value",
      "outputs": [
        {
          "components": [
            {
              "internalType": "bool",
              "name": "success",
              "type": "bool"
            },
            {
              "internalType": "bytes",
              "name": "returnData",
              "type": "bytes"
            }
          ],
          "internalType": "struct Multicall3.Result[]",
          "name": "returnData",
          "type": "tuple[]"
        }
      ],
      "stateMutability": "payable",
      "type": "function"
    },
    {
      "inputs": [
        {
          "components": [
            {
              "internalType": "address",
              "name": "target",
              "type": "address"
            },
            {
              "internalType": "bytes",
              "name": "callData",
              "type": "bytes"
            }
          ],
          "internalType": "struct Multicall3.Call[]",
          "name": "calls",
          "type": "tuple[]"
        }
      ],
      "name": "blockAndAggregate",
      "outputs": [
        {
          "internalType": "uint256",
          "name": "blockNumber",
          "type": "uint256"
        },
        {
          "internalType": "bytes32",
          "name": "blockHash",
          "type": "bytes32"
        },
        {
          "components": [
            {
              "internalType": "bool",
              "name": "success",
              "type": "bool"
            },
            {
              "internalType": "bytes",
              "name": "returnData",
              "type": "bytes"
            }
          ],
          "internalType": "struct Multicall3.Result[]",
          "name": "returnData",
          "type": "tuple[]"
        }
      ],
      "stateMutability": "payable",
      "type": "function"
    },
    {
      "inputs": [
        {
          "internalType": "uint256",
          "name": "blockNumber",
          "type": "uint256"
        }
      ],
      "name": "getBlockHash",
      "outputs": [
        {
          "internalType": "bytes32",
          "name": "blockHash",
          "type": "bytes32"
        }
      ],
      "stateMutability": "view",
      "type": "function"
    },
    {
      "inputs": [],
      "name": "getBlockNumber",
      "outputs": [
        {
          "internalType": "uint256",
          "name": "blockNumber",
          "type": "uint256"
        }
      ],
      "stateMutability": "view",
      "type": "function"
    },
    {
      "inputs": [],
      "name": "getCurrentBlockGasLimit",
      "outputs": [
        {
          "internalType": "uint256",
          "name": "gaslimit",
          "type": "uint256"
        }
      ],
      "stateMutability": "view",
      "type": "function"
    },
    {
      "inputs": [],
      "name": "getCurrentBlockTimestamp",
      "outputs": [
        {
          "internalType": "uint256",
          "name": "timestamp",
          "type": "uint256"
        }
      ],
      "stateMutability": "view",
      "type": "function"
    },
    {
      "inputs": [],
      "name": "getLastBlockHash",
      "outputs": [
        {
          "internalType": "bytes32",
          "name": "blockHash",
          "type": "bytes32"
        }
      ],
      "stateMutability": "view",
      "type": "function"
    },
    {
      "inputs": [
        {
          "internalType": "bool",
          "name": "requireSuccess",
          "type": "bool"
        },
        {
          "components": [
            {
              "internalType": "address",
              "name": "target",
              "type": "address"
            },
            {
              "internalType": "bytes",
              "name": "callData",
              "type": "bytes"
            }
          ],
          "internalType": "struct Multicall3.Call[]",
          "name": "calls",
          "type": "tuple[]"
        }
      ],
      "name": "tryAggregate",
      "outputs": [
        {
          "components": [
            {
              "internalType": "bool",
              "name": "success",
              "type": "bool"
            },
            {
              "internalType": "bytes",
              "name": "returnData",
              "type": "bytes"
            }
          ],
          "internalType": "struct Multicall3.Result[]",
          "name": "returnData",
          "type": "tuple[]"
        }
      ],
      "stateMutability": "payable",
      "type": "function"
    },
    {
      "inputs": [
        {
          "internalType": "bool",
          "name": "requireSuccess",
          "type": "bool"
        },
        {
          "components": [
            {
              "internalType": "address",
              "name": "target",
              "type": "address"
            },
            {
              "internalType": "bytes",
              "name": "callData",
              "type": "bytes"
            }
          ],
          "internalType": "struct Multicall3.Call[]",
          "name": "calls",
          "type": "tuple[]"
        }
      ],
      "name": "tryBlockAndAggregate",
      "outputs": [
        {
          "internalType": "uint256",
          "name": "blockNumber",
          "type": "uint256"
        },
        {
          "internalType": "bytes32",
          "name": "blockHash",
          "type": "bytes32"
        },
        {
          "components": [
            {
              "internalType": "bool",
              "name": "success",
              "type": "bool"
            },
            {
              "internalType": "bytes",
              "name": "returnData",
              "type": "bytes"
            }
          ],
          "internalType": "struct Multicall3.Result[]",
          "name": "returnData",
          "type": "tuple[]"
        }
      ],
      "stateMutability": "payable",
      "type": "function"
    }
  ],
  "bytecode": "0x608060405234801561001057600080fd5b50610bbb806100206000396000f3fe60806040526004361061009c5760003560e01c806342cbb15c1161006457806342cbb15c1461014457806382ad56cb1461015957806386d516e81461016c578063bce38bd714610181578063c3077fa914610194578063ee82ac5e146101a75761009c565b80630f28c97d146100a1578063174dea71146100cc578063252dba42146100ec57806327e86d6e1461010d578063399542e914610122575b600080fd5b3480156100ad57600080fd5b506100b66101c7565b6040516100c391906109f6565b60405180910390f35b6100df6100da366004610845565b6101cb565b6040516100c391906109e3565b6100ff6100fa366004610885565b610373565b6040516100c3929190610a67565b34801561011957600080fd5b506100b66104b0565b6101356101303660046108ad565b6104b9565b6040516100c393929190610acf565b34801561015057600080fd5b506100b66104d4565b6100df610167366004610885565b6104d8565b34801561017857600080fd5b506100b6610640565b6100df61018f3660046108ad565b610644565b6101356101a2366004610885565b610793565b3480156101b357600080fd5b506100b66101c2366004610904565b6107b2565b4290565b60606000828067ffffffffffffffff811180156101e757600080fd5b5060405190808252806020026020018201604052801561022157816020015b61020e6107b6565b8152602001906001900390816102065790505b5092503660005b8281101561034157600085828151811061023e57fe5b6020026020010151905087878381811061025457fe5b90506020028101906102669190610b3c565b60408101359586019590935061027f6020850185610817565b6001600160a01b0316816102966060870187610af7565b6040516102a49291906109d3565b60006040518083038185875af1925050503d80600081146102e1576040519150601f19603f3d011682016040523d82523d6000602084013e6102e6565b606091505b5060208085019190915290151580845290850135176103375762461bcd60e51b6000526020600452601760245276135d5b1d1a58d85b1b0cce8818d85b1b0819985a5b1959604a1b60445260846000fd5b5050600101610228565b5082341461036a5760405162461bcd60e51b815260040161036190610a30565b60405180910390fd5b50505092915050565b436060828067ffffffffffffffff8111801561038e57600080fd5b506040519080825280602002602001820160405280156103c257816020015b60608152602001906001900390816103ad5790505b5091503660005b828110156104a65760008787838181106103df57fe5b90506020028101906103f19190610b70565b92506104006020840184610817565b6001600160a01b03166104166020850185610af7565b6040516104249291906109d3565b6000604051808303816000865af19150503d8060008114610461576040519150601f19603f3d011682016040523d82523d6000602084013e610466565b606091505b5086848151811061047357fe5b602090810291909101015290508061049d5760405162461bcd60e51b8152600401610361906109ff565b506001016103c9565b5050509250929050565b60001943014090565b43804060606104c9868686610644565b905093509350939050565b4390565b6060818067ffffffffffffffff811180156104f257600080fd5b5060405190808252806020026020018201604052801561052c57816020015b6105196107b6565b8152602001906001900390816105115790505b5091503660005b8281101561036a57600084828151811061054957fe5b6020026020010151905086868381811061055f57fe5b90506020028101906105719190610b5b565b92506105806020840184610817565b6001600160a01b03166105966040850185610af7565b6040516105a49291906109d3565b6000604051808303816000865af19150503d80600081146105e1576040519150601f19603f3d011682016040523d82523d6000602084013e6105e6565b606091505b5060208084019190915290151580835290840135176106375762461bcd60e51b6000526020600452601760245276135d5b1d1a58d85b1b0cce8818d85b1b0819985a5b1959604a1b60445260646000fd5b50600101610533565b4590565b6060818067ffffffffffffffff8111801561065e57600080fd5b5060405190808252806020026020018201604052801561069857816020015b6106856107b6565b81526020019060019003908161067d5790505b5091503660005b828110156107895760008482815181106106b557fe5b602002602001015190508686838181106106cb57fe5b90506020028101906106dd9190610b70565b92506106ec6020840184610817565b6001600160a01b03166107026020850185610af7565b6040516107109291906109d3565b6000604051808303816000865af19150503d806000811461074d576040519150601f19603f3d011682016040523d82523d6000602084013e610752565b606091505b5060208301521515815287156107805780516107805760405162461bcd60e51b8152600401610361906109ff565b5060010161069f565b5050509392505050565b60008060606107a4600186866104b9565b919790965090945092505050565b4090565b60408051808201909152600081526060602082015290565b60008083601f8401126107df578182fd5b50813567ffffffffffffffff8111156107f6578182fd5b602083019150836020808302850101111561081057600080fd5b9250929050565b600060208284031215610828578081fd5b81356001600160a01b038116811461083e578182fd5b9392505050565b60008060208385031215610857578081fd5b823567ffffffffffffffff81111561086d578182fd5b610879858286016107ce565b90969095509350505050565b60008060208385031215610897578182fd5b823567ffffffffffffffff81111561086d578283fd5b6000806000604084860312156108c1578081fd5b833580151581146108d0578182fd5b9250602084013567ffffffffffffffff8111156108eb578182fd5b6108f7868287016107ce565b9497909650939450505050565b600060208284031215610915578081fd5b5035919050565b60008282518085526020808601955080818302840101818601855b8481101561097b57858303601f190189528151805115158452840151604085850181905261096781860183610988565b9a86019a9450505090830190600101610937565b5090979650505050505050565b60008151808452815b818110156109ad57602081850181015186830182015201610991565b818111156109be5782602083870101525b50601f01601f19169290920160200192915050565b6000828483379101908152919050565b60006020825261083e602083018461091c565b90815260200190565b602080825260179082015276135d5b1d1a58d85b1b0cce8818d85b1b0819985a5b1959604a1b604082015260600190565b6020808252601a908201527f4d756c746963616c6c333a2076616c7565206d69736d61746368000000000000604082015260600190565b600060408201848352602060408185015281855180845260608601915060608382028701019350828701855b82811015610ac157605f19888703018452610aaf868351610988565b95509284019290840190600101610a93565b509398975050505050505050565b600084825283602083015260606040830152610aee606083018461091c565b95945050505050565b6000808335601e19843603018112610b0d578283fd5b83018035915067ffffffffffffffff821115610b27578283fd5b60200191503681900382131561081057600080fd5b60008235607e19833603018112610b51578182fd5b9190910192915050565b60008235605e19833603018112610b51578182fd5b60008235603e19833603018112610b51578182fdfea26469706673582212203b5ff45139567b0d3d47e3c10de32afb074b5dafe6caec99816dd9d2442f99ed64736f6c63430007060033",
  "linkReferences": {},
  "deployedLinkReferences": {}
}